{
	"question3/romanToInt.sol": {
		"RomanToInt": {
			"abi": [
				{
					"inputs": [],
					"stateMutability": "nonpayable",
					"type": "constructor"
				},
				{
					"inputs": [
						{
							"internalType": "string",
							"name": "s",
							"type": "string"
						}
					],
					"name": "toInt",
					"outputs": [
						{
							"internalType": "uint256",
							"name": "",
							"type": "uint256"
						}
					],
					"stateMutability": "view",
					"type": "function"
				}
			],
			"devdoc": {
				"kind": "dev",
				"methods": {},
				"version": 1
			},
			"evm": {
				"assembly": "    /* \"question3/romanToInt.sol\":61:1134  contract RomanToInt{... */\n  mstore(0x40, 0x80)\n    /* \"question3/romanToInt.sol\":136:384  constructor() {... */\n  callvalue\n  dup1\n  iszero\n  tag_1\n  jumpi\n  revert(0x00, 0x00)\ntag_1:\n  pop\n    /* \"question3/romanToInt.sol\":180:181  1 */\n  0x01\n    /* \"question3/romanToInt.sol\":161:172  romanNumber */\n  0x00\n    /* \"question3/romanToInt.sol\":161:177  romanNumber['I'] */\n  0x00\n  and(not(0xffffffffffffffffffffffffffffffffffffffffffffffffffffffffffffff), 0x4900000000000000000000000000000000000000000000000000000000000000)\n  dup2\n  mstore\n  0x20\n  add\n  swap1\n  dup2\n  mstore\n  0x20\n  add\n  0x00\n  keccak256\n    /* \"question3/romanToInt.sol\":161:181  romanNumber['I'] = 1 */\n  dup2\n  swap1\n  sstore\n  pop\n    /* \"question3/romanToInt.sol\":211:212  5 */\n  0x05\n    /* \"question3/romanToInt.sol\":192:203  romanNumber */\n  0x00\n    /* \"question3/romanToInt.sol\":192:208  romanNumber['V'] */\n  0x00\n  and(not(0xffffffffffffffffffffffffffffffffffffffffffffffffffffffffffffff), 0x5600000000000000000000000000000000000000000000000000000000000000)\n  dup2\n  mstore\n  0x20\n  add\n  swap1\n  dup2\n  mstore\n  0x20\n  add\n  0x00\n  keccak256\n    /* \"question3/romanToInt.sol\":192:212  romanNumber['V'] = 5 */\n  dup2\n  swap1\n  sstore\n  pop\n    /* \"question3/romanToInt.sol\":242:244  10 */\n  0x0a\n    /* \"question3/romanToInt.sol\":223:234  romanNumber */\n  0x00\n    /* \"question3/romanToInt.sol\":223:239  romanNumber['X'] */\n  0x00\n  and(not(0xffffffffffffffffffffffffffffffffffffffffffffffffffffffffffffff), 0x5800000000000000000000000000000000000000000000000000000000000000)\n  dup2\n  mstore\n  0x20\n  add\n  swap1\n  dup2\n  mstore\n  0x20\n  add\n  0x00\n  keccak256\n    /* \"question3/romanToInt.sol\":223:244  romanNumber['X'] = 10 */\n  dup2\n  swap1\n  sstore\n  pop\n    /* \"question3/romanToInt.sol\":274:276  50 */\n  0x32\n    /* \"question3/romanToInt.sol\":255:266  romanNumber */\n  0x00\n    /* \"question3/romanToInt.sol\":255:271  romanNumber['L'] */\n  0x00\n  and(not(0xffffffffffffffffffffffffffffffffffffffffffffffffffffffffffffff), 0x4c00000000000000000000000000000000000000000000000000000000000000)\n  dup2\n  mstore\n  0x20\n  add\n  swap1\n  dup2\n  mstore\n  0x20\n  add\n  0x00\n  keccak256\n    /* \"question3/romanToInt.sol\":255:276  romanNumber['L'] = 50 */\n  dup2\n  swap1\n  sstore\n  pop\n    /* \"question3/romanToInt.sol\":306:309  100 */\n  0x64\n    /* \"question3/romanToInt.sol\":287:298  romanNumber */\n  0x00\n    /* \"question3/romanToInt.sol\":287:303  romanNumber['C'] */\n  0x00\n  and(not(0xffffffffffffffffffffffffffffffffffffffffffffffffffffffffffffff), 0x4300000000000000000000000000000000000000000000000000000000000000)\n  dup2\n  mstore\n  0x20\n  add\n  swap1\n  dup2\n  mstore\n  0x20\n  add\n  0x00\n  keccak256\n    /* \"question3/romanToInt.sol\":287:309  romanNumber['C'] = 100 */\n  dup2\n  swap1\n  sstore\n  pop\n    /* \"question3/romanToInt.sol\":339:342  500 */\n  0x01f4\n    /* \"question3/romanToInt.sol\":320:331  romanNumber */\n  0x00\n    /* \"question3/romanToInt.sol\":320:336  romanNumber['D'] */\n  0x00\n  and(not(0xffffffffffffffffffffffffffffffffffffffffffffffffffffffffffffff), 0x4400000000000000000000000000000000000000000000000000000000000000)\n  dup2\n  mstore\n  0x20\n  add\n  swap1\n  dup2\n  mstore\n  0x20\n  add\n  0x00\n  keccak256\n    /* \"question3/romanToInt.sol\":320:342  romanNumber['D'] = 500 */\n  dup2\n  swap1\n  sstore\n  pop\n    /* \"question3/romanToInt.sol\":372:376  1000 */\n  0x03e8\n    /* \"question3/romanToInt.sol\":353:364  romanNumber */\n  0x00\n    /* \"question3/romanToInt.sol\":353:369  romanNumber['M'] */\n  0x00\n  and(not(0xffffffffffffffffffffffffffffffffffffffffffffffffffffffffffffff), 0x4d00000000000000000000000000000000000000000000000000000000000000)\n  dup2\n  mstore\n  0x20\n  add\n  swap1\n  dup2\n  mstore\n  0x20\n  add\n  0x00\n  keccak256\n    /* \"question3/romanToInt.sol\":353:376  romanNumber['M'] = 1000 */\n  dup2\n  swap1\n  sstore\n  pop\n    /* \"question3/romanToInt.sol\":61:1134  contract RomanToInt{... */\n  dataSize(sub_0)\n  dup1\n  dataOffset(sub_0)\n  0x00\n  codecopy\n  0x00\n  return\nstop\n\nsub_0: assembly {\n        /* \"question3/romanToInt.sol\":61:1134  contract RomanToInt{... */\n      mstore(0x40, 0x80)\n      callvalue\n      dup1\n      iszero\n      tag_1\n      jumpi\n      revert(0x00, 0x00)\n    tag_1:\n      pop\n      jumpi(tag_2, lt(calldatasize, 0x04))\n      shr(0xe0, calldataload(0x00))\n      dup1\n      0x303b5d3b\n      eq\n      tag_3\n      jumpi\n    tag_2:\n      revert(0x00, 0x00)\n        /* \"question3/romanToInt.sol\":392:1025  function toInt(string memory s) external view returns(uint256){... */\n    tag_3:\n      tag_4\n      0x04\n      dup1\n      calldatasize\n      sub\n      dup2\n      add\n      swap1\n      tag_5\n      swap2\n      swap1\n      tag_6\n      jump\t// in\n    tag_5:\n      tag_7\n      jump\t// in\n    tag_4:\n      mload(0x40)\n      tag_8\n      swap2\n      swap1\n      tag_9\n      jump\t// in\n    tag_8:\n      mload(0x40)\n      dup1\n      swap2\n      sub\n      swap1\n      return\n    tag_7:\n        /* \"question3/romanToInt.sol\":446:453  uint256 */\n      0x00\n        /* \"question3/romanToInt.sol\":465:486  bytes memory strBytes */\n      0x00\n        /* \"question3/romanToInt.sol\":495:496  s */\n      dup3\n        /* \"question3/romanToInt.sol\":465:497  bytes memory strBytes = bytes(s) */\n      swap1\n      pop\n        /* \"question3/romanToInt.sol\":508:522  uint256 length */\n      0x00\n        /* \"question3/romanToInt.sol\":525:533  strBytes */\n      dup2\n        /* \"question3/romanToInt.sol\":525:540  strBytes.length */\n      mload\n        /* \"question3/romanToInt.sol\":508:540  uint256 length = strBytes.length */\n      swap1\n      pop\n        /* \"question3/romanToInt.sol\":551:565  uint256 result */\n      0x00\n        /* \"question3/romanToInt.sol\":581:590  uint256 i */\n      0x00\n        /* \"question3/romanToInt.sol\":593:594  1 */\n      0x01\n        /* \"question3/romanToInt.sol\":581:594  uint256 i = 1 */\n      swap1\n      pop\n        /* \"question3/romanToInt.sol\":576:994  for (uint256 i = 1;i<= length;i++){... */\n    tag_11:\n        /* \"question3/romanToInt.sol\":599:605  length */\n      dup3\n        /* \"question3/romanToInt.sol\":595:596  i */\n      dup2\n        /* \"question3/romanToInt.sol\":595:605  i<= length */\n      gt\n        /* \"question3/romanToInt.sol\":576:994  for (uint256 i = 1;i<= length;i++){... */\n      tag_12\n      jumpi\n        /* \"question3/romanToInt.sol\":625:633  bytes1 a */\n      0x00\n        /* \"question3/romanToInt.sol\":636:644  strBytes */\n      dup5\n        /* \"question3/romanToInt.sol\":647:648  1 */\n      0x01\n        /* \"question3/romanToInt.sol\":645:646  i */\n      dup4\n        /* \"question3/romanToInt.sol\":645:648  i-1 */\n      tag_14\n      swap2\n      swap1\n      tag_15\n      jump\t// in\n    tag_14:\n        /* \"question3/romanToInt.sol\":636:649  strBytes[i-1] */\n      dup2\n      mload\n      dup2\n      lt\n      tag_16\n      jumpi\n      tag_17\n      tag_18\n      jump\t// in\n    tag_17:\n    tag_16:\n      0x20\n      add\n      add\n      mload\n      0xf8\n      shr\n      0xf8\n      shl\n        /* \"question3/romanToInt.sol\":625:649  bytes1 a = strBytes[i-1] */\n      swap1\n      pop\n        /* \"question3/romanToInt.sol\":673:679  length */\n      dup4\n        /* \"question3/romanToInt.sol\":668:669  i */\n      dup3\n        /* \"question3/romanToInt.sol\":668:679  i == length */\n      sub\n        /* \"question3/romanToInt.sol\":664:768  if (i == length){... */\n      tag_19\n      jumpi\n        /* \"question3/romanToInt.sol\":709:720  getValue(a) */\n      tag_20\n        /* \"question3/romanToInt.sol\":718:719  a */\n      dup2\n        /* \"question3/romanToInt.sol\":709:717  getValue */\n      tag_21\n        /* \"question3/romanToInt.sol\":709:720  getValue(a) */\n      jump\t// in\n    tag_20:\n        /* \"question3/romanToInt.sol\":699:720  result += getValue(a) */\n      dup4\n      tag_22\n      swap2\n      swap1\n      tag_23\n      jump\t// in\n    tag_22:\n      swap3\n      pop\n        /* \"question3/romanToInt.sol\":746:752  result */\n      dup3\n        /* \"question3/romanToInt.sol\":739:752  return result */\n      swap6\n      pop\n      pop\n      pop\n      pop\n      pop\n      pop\n      jump(tag_10)\n        /* \"question3/romanToInt.sol\":664:768  if (i == length){... */\n    tag_19:\n        /* \"question3/romanToInt.sol\":782:790  bytes1 b */\n      0x00\n        /* \"question3/romanToInt.sol\":793:801  strBytes */\n      dup6\n        /* \"question3/romanToInt.sol\":802:803  i */\n      dup4\n        /* \"question3/romanToInt.sol\":793:804  strBytes[i] */\n      dup2\n      mload\n      dup2\n      lt\n      tag_24\n      jumpi\n      tag_25\n      tag_18\n      jump\t// in\n    tag_25:\n    tag_24:\n      0x20\n      add\n      add\n      mload\n      0xf8\n      shr\n      0xf8\n      shl\n        /* \"question3/romanToInt.sol\":782:804  bytes1 b = strBytes[i] */\n      swap1\n      pop\n        /* \"question3/romanToInt.sol\":837:848  getValue(b) */\n      tag_26\n        /* \"question3/romanToInt.sol\":846:847  b */\n      dup2\n        /* \"question3/romanToInt.sol\":837:845  getValue */\n      tag_21\n        /* \"question3/romanToInt.sol\":837:848  getValue(b) */\n      jump\t// in\n    tag_26:\n        /* \"question3/romanToInt.sol\":823:834  getValue(a) */\n      tag_27\n        /* \"question3/romanToInt.sol\":832:833  a */\n      dup4\n        /* \"question3/romanToInt.sol\":823:831  getValue */\n      tag_21\n        /* \"question3/romanToInt.sol\":823:834  getValue(a) */\n      jump\t// in\n    tag_27:\n        /* \"question3/romanToInt.sol\":823:848  getValue(a) < getValue(b) */\n      lt\n        /* \"question3/romanToInt.sol\":819:983  if (getValue(a) < getValue(b)){... */\n      iszero\n      tag_28\n      jumpi\n        /* \"question3/romanToInt.sol\":886:897  getValue(a) */\n      tag_29\n        /* \"question3/romanToInt.sol\":895:896  a */\n      dup3\n        /* \"question3/romanToInt.sol\":886:894  getValue */\n      tag_21\n        /* \"question3/romanToInt.sol\":886:897  getValue(a) */\n      jump\t// in\n    tag_29:\n        /* \"question3/romanToInt.sol\":877:883  result */\n      dup5\n        /* \"question3/romanToInt.sol\":877:897  result - getValue(a) */\n      tag_30\n      swap2\n      swap1\n      tag_15\n      jump\t// in\n    tag_30:\n        /* \"question3/romanToInt.sol\":868:897  result = result - getValue(a) */\n      swap4\n      pop\n        /* \"question3/romanToInt.sol\":819:983  if (getValue(a) < getValue(b)){... */\n      jump(tag_31)\n    tag_28:\n        /* \"question3/romanToInt.sol\":956:967  getValue(a) */\n      tag_32\n        /* \"question3/romanToInt.sol\":965:966  a */\n      dup3\n        /* \"question3/romanToInt.sol\":956:964  getValue */\n      tag_21\n        /* \"question3/romanToInt.sol\":956:967  getValue(a) */\n      jump\t// in\n    tag_32:\n        /* \"question3/romanToInt.sol\":947:953  result */\n      dup5\n        /* \"question3/romanToInt.sol\":947:967  result + getValue(a) */\n      tag_33\n      swap2\n      swap1\n      tag_23\n      jump\t// in\n    tag_33:\n        /* \"question3/romanToInt.sol\":938:967  result = result + getValue(a) */\n      swap4\n      pop\n        /* \"question3/romanToInt.sol\":819:983  if (getValue(a) < getValue(b)){... */\n    tag_31:\n        /* \"question3/romanToInt.sol\":610:994  {... */\n      pop\n      pop\n        /* \"question3/romanToInt.sol\":606:609  i++ */\n      dup1\n      dup1\n      tag_34\n      swap1\n      tag_35\n      jump\t// in\n    tag_34:\n      swap2\n      pop\n      pop\n        /* \"question3/romanToInt.sol\":576:994  for (uint256 i = 1;i<= length;i++){... */\n      jump(tag_11)\n    tag_12:\n      pop\n        /* \"question3/romanToInt.sol\":1011:1017  result */\n      dup1\n        /* \"question3/romanToInt.sol\":1004:1017  return result */\n      swap4\n      pop\n      pop\n      pop\n      pop\n        /* \"question3/romanToInt.sol\":392:1025  function toInt(string memory s) external view returns(uint256){... */\n    tag_10:\n      swap2\n      swap1\n      pop\n      jump\t// out\n        /* \"question3/romanToInt.sol\":1033:1131  function getValue(bytes1 s) internal view returns(uint256){... */\n    tag_21:\n        /* \"question3/romanToInt.sol\":1083:1090  uint256 */\n      0x00\n        /* \"question3/romanToInt.sol\":1109:1120  romanNumber */\n      0x00\n        /* \"question3/romanToInt.sol\":1109:1123  romanNumber[s] */\n      0x00\n        /* \"question3/romanToInt.sol\":1121:1122  s */\n      dup4\n        /* \"question3/romanToInt.sol\":1109:1123  romanNumber[s] */\n      not(0xffffffffffffffffffffffffffffffffffffffffffffffffffffffffffffff)\n      and\n      not(0xffffffffffffffffffffffffffffffffffffffffffffffffffffffffffffff)\n      and\n      dup2\n      mstore\n      0x20\n      add\n      swap1\n      dup2\n      mstore\n      0x20\n      add\n      0x00\n      keccak256\n      sload\n        /* \"question3/romanToInt.sol\":1102:1123  return romanNumber[s] */\n      swap1\n      pop\n        /* \"question3/romanToInt.sol\":1033:1131  function getValue(bytes1 s) internal view returns(uint256){... */\n      swap2\n      swap1\n      pop\n      jump\t// out\n        /* \"#utility.yul\":7:82   */\n    tag_37:\n        /* \"#utility.yul\":40:46   */\n      0x00\n        /* \"#utility.yul\":73:75   */\n      0x40\n        /* \"#utility.yul\":67:76   */\n      mload\n        /* \"#utility.yul\":57:76   */\n      swap1\n      pop\n        /* \"#utility.yul\":7:82   */\n      swap1\n      jump\t// out\n        /* \"#utility.yul\":88:205   */\n    tag_38:\n        /* \"#utility.yul\":197:198   */\n      0x00\n        /* \"#utility.yul\":194:195   */\n      0x00\n        /* \"#utility.yul\":187:199   */\n      revert\n        /* \"#utility.yul\":211:328   */\n    tag_39:\n        /* \"#utility.yul\":320:321   */\n      0x00\n        /* \"#utility.yul\":317:318   */\n      0x00\n        /* \"#utility.yul\":310:322   */\n      revert\n        /* \"#utility.yul\":334:451   */\n    tag_40:\n        /* \"#utility.yul\":443:444   */\n      0x00\n        /* \"#utility.yul\":440:441   */\n      0x00\n        /* \"#utility.yul\":433:445   */\n      revert\n        /* \"#utility.yul\":457:574   */\n    tag_41:\n        /* \"#utility.yul\":566:567   */\n      0x00\n        /* \"#utility.yul\":563:564   */\n      0x00\n        /* \"#utility.yul\":556:568   */\n      revert\n        /* \"#utility.yul\":580:682   */\n    tag_42:\n        /* \"#utility.yul\":621:627   */\n      0x00\n        /* \"#utility.yul\":672:674   */\n      0x1f\n        /* \"#utility.yul\":668:675   */\n      not\n        /* \"#utility.yul\":663:665   */\n      0x1f\n        /* \"#utility.yul\":656:661   */\n      dup4\n        /* \"#utility.yul\":652:666   */\n      add\n        /* \"#utility.yul\":648:676   */\n      and\n        /* \"#utility.yul\":638:676   */\n      swap1\n      pop\n        /* \"#utility.yul\":580:682   */\n      swap2\n      swap1\n      pop\n      jump\t// out\n        /* \"#utility.yul\":688:868   */\n    tag_43:\n        /* \"#utility.yul\":736:813   */\n      0x4e487b7100000000000000000000000000000000000000000000000000000000\n        /* \"#utility.yul\":733:734   */\n      0x00\n        /* \"#utility.yul\":726:814   */\n      mstore\n        /* \"#utility.yul\":833:837   */\n      0x41\n        /* \"#utility.yul\":830:831   */\n      0x04\n        /* \"#utility.yul\":823:838   */\n      mstore\n        /* \"#utility.yul\":857:861   */\n      0x24\n        /* \"#utility.yul\":854:855   */\n      0x00\n        /* \"#utility.yul\":847:862   */\n      revert\n        /* \"#utility.yul\":874:1155   */\n    tag_44:\n        /* \"#utility.yul\":957:984   */\n      tag_62\n        /* \"#utility.yul\":979:983   */\n      dup3\n        /* \"#utility.yul\":957:984   */\n      tag_42\n      jump\t// in\n    tag_62:\n        /* \"#utility.yul\":949:955   */\n      dup2\n        /* \"#utility.yul\":945:985   */\n      add\n        /* \"#utility.yul\":1087:1093   */\n      dup2\n        /* \"#utility.yul\":1075:1085   */\n      dup2\n        /* \"#utility.yul\":1072:1094   */\n      lt\n        /* \"#utility.yul\":1051:1069   */\n      0xffffffffffffffff\n        /* \"#utility.yul\":1039:1049   */\n      dup3\n        /* \"#utility.yul\":1036:1070   */\n      gt\n        /* \"#utility.yul\":1033:1095   */\n      or\n        /* \"#utility.yul\":1030:1118   */\n      iszero\n      tag_63\n      jumpi\n        /* \"#utility.yul\":1098:1116   */\n      tag_64\n      tag_43\n      jump\t// in\n    tag_64:\n        /* \"#utility.yul\":1030:1118   */\n    tag_63:\n        /* \"#utility.yul\":1138:1148   */\n      dup1\n        /* \"#utility.yul\":1134:1136   */\n      0x40\n        /* \"#utility.yul\":1127:1149   */\n      mstore\n        /* \"#utility.yul\":917:1155   */\n      pop\n        /* \"#utility.yul\":874:1155   */\n      pop\n      pop\n      jump\t// out\n        /* \"#utility.yul\":1161:1290   */\n    tag_45:\n        /* \"#utility.yul\":1195:1201   */\n      0x00\n        /* \"#utility.yul\":1222:1242   */\n      tag_66\n      tag_37\n      jump\t// in\n    tag_66:\n        /* \"#utility.yul\":1212:1242   */\n      swap1\n      pop\n        /* \"#utility.yul\":1251:1284   */\n      tag_67\n        /* \"#utility.yul\":1279:1283   */\n      dup3\n        /* \"#utility.yul\":1271:1277   */\n      dup3\n        /* \"#utility.yul\":1251:1284   */\n      tag_44\n      jump\t// in\n    tag_67:\n        /* \"#utility.yul\":1161:1290   */\n      swap2\n      swap1\n      pop\n      jump\t// out\n        /* \"#utility.yul\":1296:1604   */\n    tag_46:\n        /* \"#utility.yul\":1358:1362   */\n      0x00\n        /* \"#utility.yul\":1448:1466   */\n      0xffffffffffffffff\n        /* \"#utility.yul\":1440:1446   */\n      dup3\n        /* \"#utility.yul\":1437:1467   */\n      gt\n        /* \"#utility.yul\":1434:1490   */\n      iszero\n      tag_69\n      jumpi\n        /* \"#utility.yul\":1470:1488   */\n      tag_70\n      tag_43\n      jump\t// in\n    tag_70:\n        /* \"#utility.yul\":1434:1490   */\n    tag_69:\n        /* \"#utility.yul\":1508:1537   */\n      tag_71\n        /* \"#utility.yul\":1530:1536   */\n      dup3\n        /* \"#utility.yul\":1508:1537   */\n      tag_42\n      jump\t// in\n    tag_71:\n        /* \"#utility.yul\":1500:1537   */\n      swap1\n      pop\n        /* \"#utility.yul\":1592:1596   */\n      0x20\n        /* \"#utility.yul\":1586:1590   */\n      dup2\n        /* \"#utility.yul\":1582:1597   */\n      add\n        /* \"#utility.yul\":1574:1597   */\n      swap1\n      pop\n        /* \"#utility.yul\":1296:1604   */\n      swap2\n      swap1\n      pop\n      jump\t// out\n        /* \"#utility.yul\":1610:1758   */\n    tag_47:\n        /* \"#utility.yul\":1708:1714   */\n      dup3\n        /* \"#utility.yul\":1703:1706   */\n      dup2\n        /* \"#utility.yul\":1698:1701   */\n      dup4\n        /* \"#utility.yul\":1685:1715   */\n      calldatacopy\n        /* \"#utility.yul\":1749:1750   */\n      0x00\n        /* \"#utility.yul\":1740:1746   */\n      dup4\n        /* \"#utility.yul\":1735:1738   */\n      dup4\n        /* \"#utility.yul\":1731:1747   */\n      add\n        /* \"#utility.yul\":1724:1751   */\n      mstore\n        /* \"#utility.yul\":1610:1758   */\n      pop\n      pop\n      pop\n      jump\t// out\n        /* \"#utility.yul\":1764:2189   */\n    tag_48:\n        /* \"#utility.yul\":1842:1847   */\n      0x00\n        /* \"#utility.yul\":1867:1933   */\n      tag_74\n        /* \"#utility.yul\":1883:1932   */\n      tag_75\n        /* \"#utility.yul\":1925:1931   */\n      dup5\n        /* \"#utility.yul\":1883:1932   */\n      tag_46\n      jump\t// in\n    tag_75:\n        /* \"#utility.yul\":1867:1933   */\n      tag_45\n      jump\t// in\n    tag_74:\n        /* \"#utility.yul\":1858:1933   */\n      swap1\n      pop\n        /* \"#utility.yul\":1956:1962   */\n      dup3\n        /* \"#utility.yul\":1949:1954   */\n      dup2\n        /* \"#utility.yul\":1942:1963   */\n      mstore\n        /* \"#utility.yul\":1994:1998   */\n      0x20\n        /* \"#utility.yul\":1987:1992   */\n      dup2\n        /* \"#utility.yul\":1983:1999   */\n      add\n        /* \"#utility.yul\":2032:2035   */\n      dup5\n        /* \"#utility.yul\":2023:2029   */\n      dup5\n        /* \"#utility.yul\":2018:2021   */\n      dup5\n        /* \"#utility.yul\":2014:2030   */\n      add\n        /* \"#utility.yul\":2011:2036   */\n      gt\n        /* \"#utility.yul\":2008:2120   */\n      iszero\n      tag_76\n      jumpi\n        /* \"#utility.yul\":2039:2118   */\n      tag_77\n      tag_41\n      jump\t// in\n    tag_77:\n        /* \"#utility.yul\":2008:2120   */\n    tag_76:\n        /* \"#utility.yul\":2129:2183   */\n      tag_78\n        /* \"#utility.yul\":2176:2182   */\n      dup5\n        /* \"#utility.yul\":2171:2174   */\n      dup3\n        /* \"#utility.yul\":2166:2169   */\n      dup6\n        /* \"#utility.yul\":2129:2183   */\n      tag_47\n      jump\t// in\n    tag_78:\n        /* \"#utility.yul\":1848:2189   */\n      pop\n        /* \"#utility.yul\":1764:2189   */\n      swap4\n      swap3\n      pop\n      pop\n      pop\n      jump\t// out\n        /* \"#utility.yul\":2209:2549   */\n    tag_49:\n        /* \"#utility.yul\":2265:2270   */\n      0x00\n        /* \"#utility.yul\":2314:2317   */\n      dup3\n        /* \"#utility.yul\":2307:2311   */\n      0x1f\n        /* \"#utility.yul\":2299:2305   */\n      dup4\n        /* \"#utility.yul\":2295:2312   */\n      add\n        /* \"#utility.yul\":2291:2318   */\n      slt\n        /* \"#utility.yul\":2281:2403   */\n      tag_80\n      jumpi\n        /* \"#utility.yul\":2322:2401   */\n      tag_81\n      tag_40\n      jump\t// in\n    tag_81:\n        /* \"#utility.yul\":2281:2403   */\n    tag_80:\n        /* \"#utility.yul\":2439:2445   */\n      dup2\n        /* \"#utility.yul\":2426:2446   */\n      calldataload\n        /* \"#utility.yul\":2464:2543   */\n      tag_82\n        /* \"#utility.yul\":2539:2542   */\n      dup5\n        /* \"#utility.yul\":2531:2537   */\n      dup3\n        /* \"#utility.yul\":2524:2528   */\n      0x20\n        /* \"#utility.yul\":2516:2522   */\n      dup7\n        /* \"#utility.yul\":2512:2529   */\n      add\n        /* \"#utility.yul\":2464:2543   */\n      tag_48\n      jump\t// in\n    tag_82:\n        /* \"#utility.yul\":2455:2543   */\n      swap2\n      pop\n        /* \"#utility.yul\":2271:2549   */\n      pop\n        /* \"#utility.yul\":2209:2549   */\n      swap3\n      swap2\n      pop\n      pop\n      jump\t// out\n        /* \"#utility.yul\":2555:3064   */\n    tag_6:\n        /* \"#utility.yul\":2624:2630   */\n      0x00\n        /* \"#utility.yul\":2673:2675   */\n      0x20\n        /* \"#utility.yul\":2661:2670   */\n      dup3\n        /* \"#utility.yul\":2652:2659   */\n      dup5\n        /* \"#utility.yul\":2648:2671   */\n      sub\n        /* \"#utility.yul\":2644:2676   */\n      slt\n        /* \"#utility.yul\":2641:2760   */\n      iszero\n      tag_84\n      jumpi\n        /* \"#utility.yul\":2679:2758   */\n      tag_85\n      tag_38\n      jump\t// in\n    tag_85:\n        /* \"#utility.yul\":2641:2760   */\n    tag_84:\n        /* \"#utility.yul\":2827:2828   */\n      0x00\n        /* \"#utility.yul\":2816:2825   */\n      dup3\n        /* \"#utility.yul\":2812:2829   */\n      add\n        /* \"#utility.yul\":2799:2830   */\n      calldataload\n        /* \"#utility.yul\":2857:2875   */\n      0xffffffffffffffff\n        /* \"#utility.yul\":2849:2855   */\n      dup2\n        /* \"#utility.yul\":2846:2876   */\n      gt\n        /* \"#utility.yul\":2843:2960   */\n      iszero\n      tag_86\n      jumpi\n        /* \"#utility.yul\":2879:2958   */\n      tag_87\n      tag_39\n      jump\t// in\n    tag_87:\n        /* \"#utility.yul\":2843:2960   */\n    tag_86:\n        /* \"#utility.yul\":2984:3047   */\n      tag_88\n        /* \"#utility.yul\":3039:3046   */\n      dup5\n        /* \"#utility.yul\":3030:3036   */\n      dup3\n        /* \"#utility.yul\":3019:3028   */\n      dup6\n        /* \"#utility.yul\":3015:3037   */\n      add\n        /* \"#utility.yul\":2984:3047   */\n      tag_49\n      jump\t// in\n    tag_88:\n        /* \"#utility.yul\":2974:3047   */\n      swap2\n      pop\n        /* \"#utility.yul\":2770:3057   */\n      pop\n        /* \"#utility.yul\":2555:3064   */\n      swap3\n      swap2\n      pop\n      pop\n      jump\t// out\n        /* \"#utility.yul\":3070:3147   */\n    tag_50:\n        /* \"#utility.yul\":3107:3114   */\n      0x00\n        /* \"#utility.yul\":3136:3141   */\n      dup2\n        /* \"#utility.yul\":3125:3141   */\n      swap1\n      pop\n        /* \"#utility.yul\":3070:3147   */\n      swap2\n      swap1\n      pop\n      jump\t// out\n        /* \"#utility.yul\":3153:3271   */\n    tag_51:\n        /* \"#utility.yul\":3240:3264   */\n      tag_91\n        /* \"#utility.yul\":3258:3263   */\n      dup2\n        /* \"#utility.yul\":3240:3264   */\n      tag_50\n      jump\t// in\n    tag_91:\n        /* \"#utility.yul\":3235:3238   */\n      dup3\n        /* \"#utility.yul\":3228:3265   */\n      mstore\n        /* \"#utility.yul\":3153:3271   */\n      pop\n      pop\n      jump\t// out\n        /* \"#utility.yul\":3277:3499   */\n    tag_9:\n        /* \"#utility.yul\":3370:3374   */\n      0x00\n        /* \"#utility.yul\":3408:3410   */\n      0x20\n        /* \"#utility.yul\":3397:3406   */\n      dup3\n        /* \"#utility.yul\":3393:3411   */\n      add\n        /* \"#utility.yul\":3385:3411   */\n      swap1\n      pop\n        /* \"#utility.yul\":3421:3492   */\n      tag_93\n        /* \"#utility.yul\":3489:3490   */\n      0x00\n        /* \"#utility.yul\":3478:3487   */\n      dup4\n        /* \"#utility.yul\":3474:3491   */\n      add\n        /* \"#utility.yul\":3465:3471   */\n      dup5\n        /* \"#utility.yul\":3421:3492   */\n      tag_51\n      jump\t// in\n    tag_93:\n        /* \"#utility.yul\":3277:3499   */\n      swap3\n      swap2\n      pop\n      pop\n      jump\t// out\n        /* \"#utility.yul\":3505:3685   */\n    tag_52:\n        /* \"#utility.yul\":3553:3630   */\n      0x4e487b7100000000000000000000000000000000000000000000000000000000\n        /* \"#utility.yul\":3550:3551   */\n      0x00\n        /* \"#utility.yul\":3543:3631   */\n      mstore\n        /* \"#utility.yul\":3650:3654   */\n      0x11\n        /* \"#utility.yul\":3647:3648   */\n      0x04\n        /* \"#utility.yul\":3640:3655   */\n      mstore\n        /* \"#utility.yul\":3674:3678   */\n      0x24\n        /* \"#utility.yul\":3671:3672   */\n      0x00\n        /* \"#utility.yul\":3664:3679   */\n      revert\n        /* \"#utility.yul\":3691:3885   */\n    tag_15:\n        /* \"#utility.yul\":3731:3735   */\n      0x00\n        /* \"#utility.yul\":3751:3771   */\n      tag_96\n        /* \"#utility.yul\":3769:3770   */\n      dup3\n        /* \"#utility.yul\":3751:3771   */\n      tag_50\n      jump\t// in\n    tag_96:\n        /* \"#utility.yul\":3746:3771   */\n      swap2\n      pop\n        /* \"#utility.yul\":3785:3805   */\n      tag_97\n        /* \"#utility.yul\":3803:3804   */\n      dup4\n        /* \"#utility.yul\":3785:3805   */\n      tag_50\n      jump\t// in\n    tag_97:\n        /* \"#utility.yul\":3780:3805   */\n      swap3\n      pop\n        /* \"#utility.yul\":3829:3830   */\n      dup3\n        /* \"#utility.yul\":3826:3827   */\n      dup3\n        /* \"#utility.yul\":3822:3831   */\n      sub\n        /* \"#utility.yul\":3814:3831   */\n      swap1\n      pop\n        /* \"#utility.yul\":3853:3854   */\n      dup2\n        /* \"#utility.yul\":3847:3851   */\n      dup2\n        /* \"#utility.yul\":3844:3855   */\n      gt\n        /* \"#utility.yul\":3841:3878   */\n      iszero\n      tag_98\n      jumpi\n        /* \"#utility.yul\":3858:3876   */\n      tag_99\n      tag_52\n      jump\t// in\n    tag_99:\n        /* \"#utility.yul\":3841:3878   */\n    tag_98:\n        /* \"#utility.yul\":3691:3885   */\n      swap3\n      swap2\n      pop\n      pop\n      jump\t// out\n        /* \"#utility.yul\":3891:4071   */\n    tag_18:\n        /* \"#utility.yul\":3939:4016   */\n      0x4e487b7100000000000000000000000000000000000000000000000000000000\n        /* \"#utility.yul\":3936:3937   */\n      0x00\n        /* \"#utility.yul\":3929:4017   */\n      mstore\n        /* \"#utility.yul\":4036:4040   */\n      0x32\n        /* \"#utility.yul\":4033:4034   */\n      0x04\n        /* \"#utility.yul\":4026:4041   */\n      mstore\n        /* \"#utility.yul\":4060:4064   */\n      0x24\n        /* \"#utility.yul\":4057:4058   */\n      0x00\n        /* \"#utility.yul\":4050:4065   */\n      revert\n        /* \"#utility.yul\":4077:4268   */\n    tag_23:\n        /* \"#utility.yul\":4117:4120   */\n      0x00\n        /* \"#utility.yul\":4136:4156   */\n      tag_102\n        /* \"#utility.yul\":4154:4155   */\n      dup3\n        /* \"#utility.yul\":4136:4156   */\n      tag_50\n      jump\t// in\n    tag_102:\n        /* \"#utility.yul\":4131:4156   */\n      swap2\n      pop\n        /* \"#utility.yul\":4170:4190   */\n      tag_103\n        /* \"#utility.yul\":4188:4189   */\n      dup4\n        /* \"#utility.yul\":4170:4190   */\n      tag_50\n      jump\t// in\n    tag_103:\n        /* \"#utility.yul\":4165:4190   */\n      swap3\n      pop\n        /* \"#utility.yul\":4213:4214   */\n      dup3\n        /* \"#utility.yul\":4210:4211   */\n      dup3\n        /* \"#utility.yul\":4206:4215   */\n      add\n        /* \"#utility.yul\":4199:4215   */\n      swap1\n      pop\n        /* \"#utility.yul\":4234:4237   */\n      dup1\n        /* \"#utility.yul\":4231:4232   */\n      dup3\n        /* \"#utility.yul\":4228:4238   */\n      gt\n        /* \"#utility.yul\":4225:4261   */\n      iszero\n      tag_104\n      jumpi\n        /* \"#utility.yul\":4241:4259   */\n      tag_105\n      tag_52\n      jump\t// in\n    tag_105:\n        /* \"#utility.yul\":4225:4261   */\n    tag_104:\n        /* \"#utility.yul\":4077:4268   */\n      swap3\n      swap2\n      pop\n      pop\n      jump\t// out\n        /* \"#utility.yul\":4274:4507   */\n    tag_35:\n        /* \"#utility.yul\":4313:4316   */\n      0x00\n        /* \"#utility.yul\":4336:4360   */\n      tag_107\n        /* \"#utility.yul\":4354:4359   */\n      dup3\n        /* \"#utility.yul\":4336:4360   */\n      tag_50\n      jump\t// in\n    tag_107:\n        /* \"#utility.yul\":4327:4360   */\n      swap2\n      pop\n        /* \"#utility.yul\":4382:4448   */\n      0xffffffffffffffffffffffffffffffffffffffffffffffffffffffffffffffff\n        /* \"#utility.yul\":4375:4380   */\n      dup3\n        /* \"#utility.yul\":4372:4449   */\n      sub\n        /* \"#utility.yul\":4369:4472   */\n      tag_108\n      jumpi\n        /* \"#utility.yul\":4452:4470   */\n      tag_109\n      tag_52\n      jump\t// in\n    tag_109:\n        /* \"#utility.yul\":4369:4472   */\n    tag_108:\n        /* \"#utility.yul\":4499:4500   */\n      0x01\n        /* \"#utility.yul\":4492:4497   */\n      dup3\n        /* \"#utility.yul\":4488:4501   */\n      add\n        /* \"#utility.yul\":4481:4501   */\n      swap1\n      pop\n        /* \"#utility.yul\":4274:4507   */\n      swap2\n      swap1\n      pop\n      jump\t// out\n\n    auxdata: 0xa2646970667358221220bcdb1dd66fc88c9d80cdbd2235c9d4cb092f737a86b9856d1dee6947c41dc00864736f6c634300081e0033\n}\n",
				"bytecode": {
					"linkReferences": {},
					"object": "608060405234801561000f575f5ffd5b5060015f5f7f49000000000000000000000000000000000000000000000000000000000000007effffffffffffffffffffffffffffffffffffffffffffffffffffffffffffff191681526020019081526020015f208190555060055f5f7f56000000000000000000000000000000000000000000000000000000000000007effffffffffffffffffffffffffffffffffffffffffffffffffffffffffffff191681526020019081526020015f2081905550600a5f5f7f58000000000000000000000000000000000000000000000000000000000000007effffffffffffffffffffffffffffffffffffffffffffffffffffffffffffff191681526020019081526020015f208190555060325f5f7f4c000000000000000000000000000000000000000000000000000000000000007effffffffffffffffffffffffffffffffffffffffffffffffffffffffffffff191681526020019081526020015f208190555060645f5f7f43000000000000000000000000000000000000000000000000000000000000007effffffffffffffffffffffffffffffffffffffffffffffffffffffffffffff191681526020019081526020015f20819055506101f45f5f7f44000000000000000000000000000000000000000000000000000000000000007effffffffffffffffffffffffffffffffffffffffffffffffffffffffffffff191681526020019081526020015f20819055506103e85f5f7f4d000000000000000000000000000000000000000000000000000000000000007effffffffffffffffffffffffffffffffffffffffffffffffffffffffffffff191681526020019081526020015f20819055506104b8806102875f395ff3fe608060405234801561000f575f5ffd5b5060043610610029575f3560e01c8063303b5d3b1461002d575b5f5ffd5b61004760048036038101906100429190610303565b61005d565b6040516100549190610362565b60405180910390f35b5f5f8290505f815190505f5f600190505b82811161014c575f8460018361008491906103a8565b81518110610095576100946103db565b5b602001015160f81c60f81b90508382036100cc576100b281610159565b836100bd9190610408565b92508295505050505050610154565b5f8583815181106100e0576100df6103db565b5b602001015160f81c60f81b90506100f681610159565b6100ff83610159565b10156101205761010e82610159565b8461011991906103a8565b9350610137565b61012982610159565b846101349190610408565b93505b505080806101449061043b565b91505061006e565b508093505050505b919050565b5f5f5f837effffffffffffffffffffffffffffffffffffffffffffffffffffffffffffff19167effffffffffffffffffffffffffffffffffffffffffffffffffffffffffffff191681526020019081526020015f20549050919050565b5f604051905090565b5f5ffd5b5f5ffd5b5f5ffd5b5f5ffd5b5f601f19601f8301169050919050565b7f4e487b71000000000000000000000000000000000000000000000000000000005f52604160045260245ffd5b610215826101cf565b810181811067ffffffffffffffff82111715610234576102336101df565b5b80604052505050565b5f6102466101b6565b9050610252828261020c565b919050565b5f67ffffffffffffffff821115610271576102706101df565b5b61027a826101cf565b9050602081019050919050565b828183375f83830152505050565b5f6102a76102a284610257565b61023d565b9050828152602081018484840111156102c3576102c26101cb565b5b6102ce848285610287565b509392505050565b5f82601f8301126102ea576102e96101c7565b5b81356102fa848260208601610295565b91505092915050565b5f60208284031215610318576103176101bf565b5b5f82013567ffffffffffffffff811115610335576103346101c3565b5b610341848285016102d6565b91505092915050565b5f819050919050565b61035c8161034a565b82525050565b5f6020820190506103755f830184610353565b92915050565b7f4e487b71000000000000000000000000000000000000000000000000000000005f52601160045260245ffd5b5f6103b28261034a565b91506103bd8361034a565b92508282039050818111156103d5576103d461037b565b5b92915050565b7f4e487b71000000000000000000000000000000000000000000000000000000005f52603260045260245ffd5b5f6104128261034a565b915061041d8361034a565b92508282019050808211156104355761043461037b565b5b92915050565b5f6104458261034a565b91507fffffffffffffffffffffffffffffffffffffffffffffffffffffffffffffffff82036104775761047661037b565b5b60018201905091905056fea2646970667358221220bcdb1dd66fc88c9d80cdbd2235c9d4cb092f737a86b9856d1dee6947c41dc00864736f6c634300081e0033",
					"opcodes": "PUSH1 0x80 PUSH1 0x40 MSTORE CALLVALUE DUP1 ISZERO PUSH2 0xF JUMPI PUSH0 PUSH0 REVERT JUMPDEST POP PUSH1 0x1 PUSH0 PUSH0 PUSH32 0x4900000000000000000000000000000000000000000000000000000000000000 PUSH31 0xFFFFFFFFFFFFFFFFFFFFFFFFFFFFFFFFFFFFFFFFFFFFFFFFFFFFFFFFFFFFFF NOT AND DUP2 MSTORE PUSH1 0x20 ADD SWAP1 DUP2 MSTORE PUSH1 0x20 ADD PUSH0 KECCAK256 DUP2 SWAP1 SSTORE POP PUSH1 0x5 PUSH0 PUSH0 PUSH32 0x5600000000000000000000000000000000000000000000000000000000000000 PUSH31 0xFFFFFFFFFFFFFFFFFFFFFFFFFFFFFFFFFFFFFFFFFFFFFFFFFFFFFFFFFFFFFF NOT AND DUP2 MSTORE PUSH1 0x20 ADD SWAP1 DUP2 MSTORE PUSH1 0x20 ADD PUSH0 KECCAK256 DUP2 SWAP1 SSTORE POP PUSH1 0xA PUSH0 PUSH0 PUSH32 0x5800000000000000000000000000000000000000000000000000000000000000 PUSH31 0xFFFFFFFFFFFFFFFFFFFFFFFFFFFFFFFFFFFFFFFFFFFFFFFFFFFFFFFFFFFFFF NOT AND DUP2 MSTORE PUSH1 0x20 ADD SWAP1 DUP2 MSTORE PUSH1 0x20 ADD PUSH0 KECCAK256 DUP2 SWAP1 SSTORE POP PUSH1 0x32 PUSH0 PUSH0 PUSH32 0x4C00000000000000000000000000000000000000000000000000000000000000 PUSH31 0xFFFFFFFFFFFFFFFFFFFFFFFFFFFFFFFFFFFFFFFFFFFFFFFFFFFFFFFFFFFFFF NOT AND DUP2 MSTORE PUSH1 0x20 ADD SWAP1 DUP2 MSTORE PUSH1 0x20 ADD PUSH0 KECCAK256 DUP2 SWAP1 SSTORE POP PUSH1 0x64 PUSH0 PUSH0 PUSH32 0x4300000000000000000000000000000000000000000000000000000000000000 PUSH31 0xFFFFFFFFFFFFFFFFFFFFFFFFFFFFFFFFFFFFFFFFFFFFFFFFFFFFFFFFFFFFFF NOT AND DUP2 MSTORE PUSH1 0x20 ADD SWAP1 DUP2 MSTORE PUSH1 0x20 ADD PUSH0 KECCAK256 DUP2 SWAP1 SSTORE POP PUSH2 0x1F4 PUSH0 PUSH0 PUSH32 0x4400000000000000000000000000000000000000000000000000000000000000 PUSH31 0xFFFFFFFFFFFFFFFFFFFFFFFFFFFFFFFFFFFFFFFFFFFFFFFFFFFFFFFFFFFFFF NOT AND DUP2 MSTORE PUSH1 0x20 ADD SWAP1 DUP2 MSTORE PUSH1 0x20 ADD PUSH0 KECCAK256 DUP2 SWAP1 SSTORE POP PUSH2 0x3E8 PUSH0 PUSH0 PUSH32 0x4D00000000000000000000000000000000000000000000000000000000000000 PUSH31 0xFFFFFFFFFFFFFFFFFFFFFFFFFFFFFFFFFFFFFFFFFFFFFFFFFFFFFFFFFFFFFF NOT AND DUP2 MSTORE PUSH1 0x20 ADD SWAP1 DUP2 MSTORE PUSH1 0x20 ADD PUSH0 KECCAK256 DUP2 SWAP1 SSTORE POP PUSH2 0x4B8 DUP1 PUSH2 0x287 PUSH0 CODECOPY PUSH0 RETURN INVALID PUSH1 0x80 PUSH1 0x40 MSTORE CALLVALUE DUP1 ISZERO PUSH2 0xF JUMPI PUSH0 PUSH0 REVERT JUMPDEST POP PUSH1 0x4 CALLDATASIZE LT PUSH2 0x29 JUMPI PUSH0 CALLDATALOAD PUSH1 0xE0 SHR DUP1 PUSH4 0x303B5D3B EQ PUSH2 0x2D JUMPI JUMPDEST PUSH0 PUSH0 REVERT JUMPDEST PUSH2 0x47 PUSH1 0x4 DUP1 CALLDATASIZE SUB DUP2 ADD SWAP1 PUSH2 0x42 SWAP2 SWAP1 PUSH2 0x303 JUMP JUMPDEST PUSH2 0x5D JUMP JUMPDEST PUSH1 0x40 MLOAD PUSH2 0x54 SWAP2 SWAP1 PUSH2 0x362 JUMP JUMPDEST PUSH1 0x40 MLOAD DUP1 SWAP2 SUB SWAP1 RETURN JUMPDEST PUSH0 PUSH0 DUP3 SWAP1 POP PUSH0 DUP2 MLOAD SWAP1 POP PUSH0 PUSH0 PUSH1 0x1 SWAP1 POP JUMPDEST DUP3 DUP2 GT PUSH2 0x14C JUMPI PUSH0 DUP5 PUSH1 0x1 DUP4 PUSH2 0x84 SWAP2 SWAP1 PUSH2 0x3A8 JUMP JUMPDEST DUP2 MLOAD DUP2 LT PUSH2 0x95 JUMPI PUSH2 0x94 PUSH2 0x3DB JUMP JUMPDEST JUMPDEST PUSH1 0x20 ADD ADD MLOAD PUSH1 0xF8 SHR PUSH1 0xF8 SHL SWAP1 POP DUP4 DUP3 SUB PUSH2 0xCC JUMPI PUSH2 0xB2 DUP2 PUSH2 0x159 JUMP JUMPDEST DUP4 PUSH2 0xBD SWAP2 SWAP1 PUSH2 0x408 JUMP JUMPDEST SWAP3 POP DUP3 SWAP6 POP POP POP POP POP POP PUSH2 0x154 JUMP JUMPDEST PUSH0 DUP6 DUP4 DUP2 MLOAD DUP2 LT PUSH2 0xE0 JUMPI PUSH2 0xDF PUSH2 0x3DB JUMP JUMPDEST JUMPDEST PUSH1 0x20 ADD ADD MLOAD PUSH1 0xF8 SHR PUSH1 0xF8 SHL SWAP1 POP PUSH2 0xF6 DUP2 PUSH2 0x159 JUMP JUMPDEST PUSH2 0xFF DUP4 PUSH2 0x159 JUMP JUMPDEST LT ISZERO PUSH2 0x120 JUMPI PUSH2 0x10E DUP3 PUSH2 0x159 JUMP JUMPDEST DUP5 PUSH2 0x119 SWAP2 SWAP1 PUSH2 0x3A8 JUMP JUMPDEST SWAP4 POP PUSH2 0x137 JUMP JUMPDEST PUSH2 0x129 DUP3 PUSH2 0x159 JUMP JUMPDEST DUP5 PUSH2 0x134 SWAP2 SWAP1 PUSH2 0x408 JUMP JUMPDEST SWAP4 POP JUMPDEST POP POP DUP1 DUP1 PUSH2 0x144 SWAP1 PUSH2 0x43B JUMP JUMPDEST SWAP2 POP POP PUSH2 0x6E JUMP JUMPDEST POP DUP1 SWAP4 POP POP POP POP JUMPDEST SWAP2 SWAP1 POP JUMP JUMPDEST PUSH0 PUSH0 PUSH0 DUP4 PUSH31 0xFFFFFFFFFFFFFFFFFFFFFFFFFFFFFFFFFFFFFFFFFFFFFFFFFFFFFFFFFFFFFF NOT AND PUSH31 0xFFFFFFFFFFFFFFFFFFFFFFFFFFFFFFFFFFFFFFFFFFFFFFFFFFFFFFFFFFFFFF NOT AND DUP2 MSTORE PUSH1 0x20 ADD SWAP1 DUP2 MSTORE PUSH1 0x20 ADD PUSH0 KECCAK256 SLOAD SWAP1 POP SWAP2 SWAP1 POP JUMP JUMPDEST PUSH0 PUSH1 0x40 MLOAD SWAP1 POP SWAP1 JUMP JUMPDEST PUSH0 PUSH0 REVERT JUMPDEST PUSH0 PUSH0 REVERT JUMPDEST PUSH0 PUSH0 REVERT JUMPDEST PUSH0 PUSH0 REVERT JUMPDEST PUSH0 PUSH1 0x1F NOT PUSH1 0x1F DUP4 ADD AND SWAP1 POP SWAP2 SWAP1 POP JUMP JUMPDEST PUSH32 0x4E487B7100000000000000000000000000000000000000000000000000000000 PUSH0 MSTORE PUSH1 0x41 PUSH1 0x4 MSTORE PUSH1 0x24 PUSH0 REVERT JUMPDEST PUSH2 0x215 DUP3 PUSH2 0x1CF JUMP JUMPDEST DUP2 ADD DUP2 DUP2 LT PUSH8 0xFFFFFFFFFFFFFFFF DUP3 GT OR ISZERO PUSH2 0x234 JUMPI PUSH2 0x233 PUSH2 0x1DF JUMP JUMPDEST JUMPDEST DUP1 PUSH1 0x40 MSTORE POP POP POP JUMP JUMPDEST PUSH0 PUSH2 0x246 PUSH2 0x1B6 JUMP JUMPDEST SWAP1 POP PUSH2 0x252 DUP3 DUP3 PUSH2 0x20C JUMP JUMPDEST SWAP2 SWAP1 POP JUMP JUMPDEST PUSH0 PUSH8 0xFFFFFFFFFFFFFFFF DUP3 GT ISZERO PUSH2 0x271 JUMPI PUSH2 0x270 PUSH2 0x1DF JUMP JUMPDEST JUMPDEST PUSH2 0x27A DUP3 PUSH2 0x1CF JUMP JUMPDEST SWAP1 POP PUSH1 0x20 DUP2 ADD SWAP1 POP SWAP2 SWAP1 POP JUMP JUMPDEST DUP3 DUP2 DUP4 CALLDATACOPY PUSH0 DUP4 DUP4 ADD MSTORE POP POP POP JUMP JUMPDEST PUSH0 PUSH2 0x2A7 PUSH2 0x2A2 DUP5 PUSH2 0x257 JUMP JUMPDEST PUSH2 0x23D JUMP JUMPDEST SWAP1 POP DUP3 DUP2 MSTORE PUSH1 0x20 DUP2 ADD DUP5 DUP5 DUP5 ADD GT ISZERO PUSH2 0x2C3 JUMPI PUSH2 0x2C2 PUSH2 0x1CB JUMP JUMPDEST JUMPDEST PUSH2 0x2CE DUP5 DUP3 DUP6 PUSH2 0x287 JUMP JUMPDEST POP SWAP4 SWAP3 POP POP POP JUMP JUMPDEST PUSH0 DUP3 PUSH1 0x1F DUP4 ADD SLT PUSH2 0x2EA JUMPI PUSH2 0x2E9 PUSH2 0x1C7 JUMP JUMPDEST JUMPDEST DUP2 CALLDATALOAD PUSH2 0x2FA DUP5 DUP3 PUSH1 0x20 DUP7 ADD PUSH2 0x295 JUMP JUMPDEST SWAP2 POP POP SWAP3 SWAP2 POP POP JUMP JUMPDEST PUSH0 PUSH1 0x20 DUP3 DUP5 SUB SLT ISZERO PUSH2 0x318 JUMPI PUSH2 0x317 PUSH2 0x1BF JUMP JUMPDEST JUMPDEST PUSH0 DUP3 ADD CALLDATALOAD PUSH8 0xFFFFFFFFFFFFFFFF DUP2 GT ISZERO PUSH2 0x335 JUMPI PUSH2 0x334 PUSH2 0x1C3 JUMP JUMPDEST JUMPDEST PUSH2 0x341 DUP5 DUP3 DUP6 ADD PUSH2 0x2D6 JUMP JUMPDEST SWAP2 POP POP SWAP3 SWAP2 POP POP JUMP JUMPDEST PUSH0 DUP2 SWAP1 POP SWAP2 SWAP1 POP JUMP JUMPDEST PUSH2 0x35C DUP2 PUSH2 0x34A JUMP JUMPDEST DUP3 MSTORE POP POP JUMP JUMPDEST PUSH0 PUSH1 0x20 DUP3 ADD SWAP1 POP PUSH2 0x375 PUSH0 DUP4 ADD DUP5 PUSH2 0x353 JUMP JUMPDEST SWAP3 SWAP2 POP POP JUMP JUMPDEST PUSH32 0x4E487B7100000000000000000000000000000000000000000000000000000000 PUSH0 MSTORE PUSH1 0x11 PUSH1 0x4 MSTORE PUSH1 0x24 PUSH0 REVERT JUMPDEST PUSH0 PUSH2 0x3B2 DUP3 PUSH2 0x34A JUMP JUMPDEST SWAP2 POP PUSH2 0x3BD DUP4 PUSH2 0x34A JUMP JUMPDEST SWAP3 POP DUP3 DUP3 SUB SWAP1 POP DUP2 DUP2 GT ISZERO PUSH2 0x3D5 JUMPI PUSH2 0x3D4 PUSH2 0x37B JUMP JUMPDEST JUMPDEST SWAP3 SWAP2 POP POP JUMP JUMPDEST PUSH32 0x4E487B7100000000000000000000000000000000000000000000000000000000 PUSH0 MSTORE PUSH1 0x32 PUSH1 0x4 MSTORE PUSH1 0x24 PUSH0 REVERT JUMPDEST PUSH0 PUSH2 0x412 DUP3 PUSH2 0x34A JUMP JUMPDEST SWAP2 POP PUSH2 0x41D DUP4 PUSH2 0x34A JUMP JUMPDEST SWAP3 POP DUP3 DUP3 ADD SWAP1 POP DUP1 DUP3 GT ISZERO PUSH2 0x435 JUMPI PUSH2 0x434 PUSH2 0x37B JUMP JUMPDEST JUMPDEST SWAP3 SWAP2 POP POP JUMP JUMPDEST PUSH0 PUSH2 0x445 DUP3 PUSH2 0x34A JUMP JUMPDEST SWAP2 POP PUSH32 0xFFFFFFFFFFFFFFFFFFFFFFFFFFFFFFFFFFFFFFFFFFFFFFFFFFFFFFFFFFFFFFFF DUP3 SUB PUSH2 0x477 JUMPI PUSH2 0x476 PUSH2 0x37B JUMP JUMPDEST JUMPDEST PUSH1 0x1 DUP3 ADD SWAP1 POP SWAP2 SWAP1 POP JUMP INVALID LOG2 PUSH5 0x6970667358 0x22 SLT KECCAK256 0xBC 0xDB SAR 0xD6 PUSH16 0xC88C9D80CDBD2235C9D4CB092F737A86 0xB9 DUP6 PUSH14 0x1DEE6947C41DC00864736F6C6343 STOP ADDMOD 0x1E STOP CALLER "
				},
				"gasEstimates": {
					"creation": {
						"codeDepositCost": "241600",
						"executionCost": "155665",
						"totalCost": "397265"
					},
					"external": {
						"toInt(string)": "infinite"
					},
					"internal": {
						"getValue(bytes1)": "2226"
					}
				},
				"methodIdentifiers": {
					"toInt(string)": "303b5d3b"
				}
			},
			"storageLayout": {
				"storage": [
					{
						"astId": 5,
						"contract": "question3/romanToInt.sol:RomanToInt",
						"label": "romanNumber",
						"offset": 0,
						"slot": "0",
						"type": "t_mapping(t_bytes1,t_uint256)"
					}
				],
				"types": {
					"t_bytes1": {
						"encoding": "inplace",
						"label": "bytes1",
						"numberOfBytes": "1"
					},
					"t_mapping(t_bytes1,t_uint256)": {
						"encoding": "mapping",
						"key": "t_bytes1",
						"label": "mapping(bytes1 => uint256)",
						"numberOfBytes": "32",
						"value": "t_uint256"
					},
					"t_uint256": {
						"encoding": "inplace",
						"label": "uint256",
						"numberOfBytes": "32"
					}
				}
			},
			"userdoc": {
				"kind": "user",
				"methods": {},
				"version": 1
			}
		}
	}
}